:100000000C9463000C948B000C948B000C948B006C
:100010000C948B000C948B000C948B000C948B0034
:100020000C948B000C948B000C948B000C948B0024
:100030000C948B000C948B000C948B000C948B0014
:100040000C9418060C948B000C94E6050C94C005D7
:100050000C948B000C948B000C948B000C948B00F4
:100060000C948B000C948B000000000024002700EF
:100070002A0000000000250028002B0000000000DE
:1000800023002600290004040404040404040202DA
:100090000202020203030303030301020408102007
:1000A0004080010204081020010204081020000012
:1000B0000008000201000003040700000000000027
:1000C000000062065F0D11241FBECFEFD8E0DEBF37
:1000D000CDBF26E0A2E7B5E001C01D92AC34B20767
:1000E000E1F715E0A0E0B1E0E2EDFFE102C005902C
:1000F0000D92A237B107D9F710E0C2E6D0E004C0F4
:100100002197FE010E94DB0DC136D107C9F70E947D
:10011000C4060C94DC0F0C9400000895AF92BF92BB
:10012000CF92DF92EF92FF920F931F93CF93DF93C3
:100130006C017B018B01040F151FEB015E01AE18F2
:10014000BF08C017D10759F06991D601ED91FC9114
:100150000190F081E02DC6010995892B79F7C50141
:10016000DF91CF911F910F91FF90EF90DF90CF9093
:10017000BF90AF900895FC01538D448D252F30E042
:10018000842F90E0821B930B541710F0CF960895A4
:1001900001970895FC01918D828D981761F0A28DD1
:1001A000AE0FBF2FB11D5D968C91928D9F5F9F7397
:1001B000928F90E008958FEF9FEF08952FB7F894F6
:1001C0008091770590917805A0917905B0917A0595
:1001D0002FBF8093830590938405A0938505B093EA
:1001E00086058BE795E00E94CA0097FF26C02FB7CF
:1001F000F8948091770590917805A0917905B09158
:100200007A052FBF40918305509184056091850543
:1002100070918605841B950BA60BB70B40917F054B
:100220005091800560918105709182058417950732
:10023000A607B707B0F28FEF9FEF0895FC01918DED
:10024000828D981731F0828DE80FF11D858D90E039
:1002500008958FEF9FEF0895FC01918D228D892FD6
:1002600090E0805C9F4F821B91098F7399270895BE
:100270008BE795E00E942C0121E0892B09F420E016
:10028000822F089580E090E0892B29F00E943801A8
:1002900081110C9400000895FC01A48DA80FB92FC2
:1002A000B11DA35ABF4F2C91848D90E001968F739E
:1002B0009927848FA689B7892C93A089B1898C91BD
:1002C000837080648C93938D848D981306C002880C
:1002D000F389E02D80818F7D80830895EF92FF92D6
:1002E0000F931F93CF93DF93EC0181E0888F9B8D59
:1002F0008C8D98131AC0E889F989808185FF15C013
:100300009FB7F894EE89FF896083E889F989808135
:100310008370806480839FBF81E090E0DF91CF9104
:100320001F910F91FF90EF900895F62E0B8D10E026
:100330000F5F1F4F0F731127E02E8C8D8E110CC095
:100340000FB607FCFACFE889F989808185FFF5CFE0
:10035000CE010E944C01F1CFEB8DEC0FFD2FF11D72
:10036000E35AFF4FF0829FB7F8940B8FEA89FB891D
:1003700080818062CFCFCF93DF93EC01888D88237B
:10038000B9F0AA89BB89E889F9898C9185FD03C0F8
:10039000808186FD0DC00FB607FCF7CF8C9185FFDD
:1003A000F2CF808185FFEDCFCE010E944C01E9CFD5
:1003B000DF91CF910895833081F028F4813099F056
:1003C0008230A9F008958730A9F08830C9F08430D0
:1003D000B1F4809180008F7D03C0809180008F7781
:1003E00080938000089584B58F7784BD089584B587
:1003F0008F7DFBCF8091B0008F778093B000089500
:100400008091B0008F7DF9CFCF93DF93282F30E01C
:10041000F901E255FF4F8491F901E656FF4FD4915F
:10042000F901EA57FF4FC491CC23A1F081110E943A
:10043000DB01EC2FF0E0EE0FFF1FE458FF4FA5911A
:10044000B491EC91ED2381E090E009F480E0DF913C
:10045000CF91089580E090E0FACF1F93CF93DF9380
:10046000282F30E0F901E255FF4F8491F901E6565B
:10047000FF4FD491F901EA57FF4FC491CC23A9F063
:10048000162F81110E94DB01EC2FF0E0EE0FFF1F11
:10049000EE58FF4FA591B4918FB7F894EC911111DC
:1004A00008C0D095DE23DC938FBFDF91CF911F91E1
:1004B0000895DE2BF8CFCF93DF9390E0FC01E65652
:1004C000FF4F24918A579F4FFC0184918823D1F0DC
:1004D00090E0880F991FFC01E859FF4FA591B49156
:1004E000FC01EE58FF4FC591D49161110EC09FB72A
:1004F000F8948C91E22FE0958E238C932881E2234F
:10050000E8839FBFDF91CF9108958FB7F894EC9166
:10051000E22BEC938FBFF6CF3FB7F8948091730531
:1005200090917405A0917505B091760526B5A89BAC
:1005300005C02F3F19F00196A11DB11D3FBFBA2F75
:10054000A92F982F8827BC01CD01620F711D811D35
:10055000911D42E0660F771F881F991F4A95D1F7BA
:1005600008958F929F92AF92BF92CF92DF92EF92B7
:10057000FF924B015C010E948C026B017C010E9486
:100580008C026C197D098E099F09683E73408105B4
:100590009105A8F321E0821A9108A108B10888EE1C
:1005A000C80E83E0D81EE11CF11C81149104A10443
:1005B000B10429F7FF90EF90DF90CF90BF90AF90FC
:1005C0009F908F90089590E080E00895CF93DF93FF
:1005D000EC0160E08E810E942D0261E08E810E941C
:1005E0002D0260E08E810E942D028BE891E0019740
:1005F000F1F7DF91CF910895CF92DF92EF92FF92C2
:100600000F931F93CF93DF936C017C0187E0E80E7B
:10061000F11CD0E0C0E0062F10E0B8010C2E02C0A3
:10062000759567950A94E2F76170F70181917F01F2
:100630000E942D022196C430D10579F7C601DF91C1
:10064000CF911F910F91FF90EF90DF90CF900C947E
:10065000E602CF92DF92EF92FF920F931F93CF9318
:10066000DF93EC01F62E642F8C810E942D028D8188
:100670008F3F19F060E00E942D020F2D10E08F8552
:1006800084FF25C06E0187E0C80ED11CF12CE12C3F
:10069000B8010E2C02C0759567950A94E2F7617057
:1006A000F60181916F010E942D02FFEFEF1AFF0A00
:1006B00088E0E816F10461F7CE01DF91CF911F9138
:1006C0000F91FF90EF90DF90CF900C94E602B8016D
:1006D00084E0759567958A95E1F7CE010E94FC024A
:1006E0006F2DCE01DF91CF911F910F91FF90EF9071
:1006F000DF90CF900C94FC0240E0682F80E396E0FE
:100700000C94290381E00E947C038BE39FE1019715
:10071000F1F70895CF93DF93823029F490913F064B
:10072000986090933F06809343061092440680E4BD
:100730008093450680E18093460680E580934706D6
:1007400061E0809134060E945B02809135068F3F04
:1007500019F061E00E945B0261E0809136060E9420
:100760005B02C0E3D6E09E012053364080913F06F5
:1007700084FD0BC084E090E021962817390744F4EB
:1007800061E08E810E945B02EECF88E090E0F4CFC2
:100790008BE39DE00197F1F760E0809134060E94C1
:1007A0002D0260E0809136060E942D028091350670
:1007B0008F3F19F060E00E942D0280913F0684FD7A
:1007C00034C063E080E396E00E94FC02CBE4D6E410
:1007D000CE010197F1F763E080E396E00E94FC020E
:1007E0002197F1F763E080E396E00E94FC0283E545
:1007F00092E00197F1F762E080E396E00E94FC024C
:1008000080913F0680620E947C0384E080934006D2
:100810008CE00E947C030E94820382E08093410668
:1008200086E0DF91CF910C947C0380620E947C0370
:100830008BE496E40197F1F780913F0680620E9475
:100840007C0383E592E00197F1F780913F06806297
:100850000E947C03D5CF90914306691710F06FEF8B
:10086000690FE62FF0E0E05DF94F9489890F806809
:100870000C947C0341E00E94290381E090E00895FC
:10088000FC0101900020E9F73197AF01481B590B9B
:10089000BC0180E396E00C948E0020912E063091EE
:1008A0002F06809128069091290628173907F1F420
:1008B00080912A0690912B0660912406709125065E
:1008C0000097D1F061157105A1F4232BC1F0FC0153
:1008D000808190E008C0232B91F0FB01808190E0A3
:1008E00091958195910921E0892B09F020E0822FD3
:1008F00008950E94CC0FF7CF6115710561F721E0D3
:10090000F6CFCF93DF93EC0180912A0690912B06CE
:100910000097E9F06881798161157105B1F0409126
:100920002C0650912D062C813D814217530768F00B
:100930000E94D50F8C819D8190932F0680932E0667
:100940001D821C82DF91CF9108950E947D0E8881C7
:10095000998190932B0680932A068A819B8190939C
:100960002D0680932C068C819D8190932F06809379
:100970002E06198218821B821A82E2CFCF93DF9350
:10098000EC0188819981009711F00E947D0E1982F7
:1009900018821D821C821B821A82DF91CF910895DA
:1009A000FC0180819181009711F00C947D0E0895D7
:1009B0000F931F93CF93DF93EC0188819981009768
:1009C00059F02A813B812617370730F081E0DF910B
:1009D000CF911F910F9108958B016F5F7F4F0E9400
:1009E000060F009759F0998388831B830A832C8113
:1009F0003D81232B59F7FC011082E8CF80E0E7CF3F
:100A0000EF92FF920F931F93CF93DF9361157105C0
:100A100041F480E0DF91CF911F910F91FF90EF9013
:100A2000089541155105B1F07B01EC010C811D8148
:100A3000040F151FB8010E94D804882351F32881A0
:100A400039818C819D81B701820F931F0E94D50F40
:100A50001D830C8381E0DECFCF93DF93EC0141E077
:100A600050E064E271E00E940005811103C0CE01F4
:100A70000E94BE04CE01DF91CF910895EF92FF92C4
:100A80000F931F93CF93DF93EC017B018A01BA018F
:100A90000E94D80481110BC0CE010E94BE04CE0179
:100AA000DF91CF911F910F91FF90EF9008951D83DB
:100AB0000C83B701888199810E94D50FF0CF0F93E5
:100AC0001F93CF93DF9300D0CDB7DEB78C01FC012D
:100AD00011821082138212821582148250E040E04B
:100AE00061E675E00E943E050E94DE0097FD0BC0A6
:100AF00089831A8241E050E0BE016F5F7F4FC801D9
:100B00000E940005F1CFC8010F900F90DF91CF91A7
:100B10001F910F910895FB0101900020E9F7319793
:100B2000AF01461B570B0C943E05FB01DC011196EF
:100B30001C921E9213961C921E92129715961C924E
:100B40001E9214978617970749F06081718161158D
:100B5000710521F0448155810C943E050895FC01F6
:100B6000118210821382128215821482FB0101907D
:100B70000020E9F73197AF01461B570B0C943E0557
:100B80001F920F920FB60F9211242F933F934F9302
:100B90005F936F937F938F939F93AF93BF93EF93E5
:100BA000FF938BE795E00E944C01FF91EF91BF917D
:100BB000AF919F918F917F916F915F914F913F91F5
:100BC0002F910F900FBE0F901F9018951F920F92AC
:100BD0000FB60F9211242F938F939F93EF93FF9350
:100BE000E0918B05F0918C058081E0919105F09169
:100BF000920582FD1BC09081809194058F5F8F7359
:100C000020919505821741F0E0919405F0E0E558B8
:100C1000FA4F958F80939405FF91EF919F918F915B
:100C20002F910F900FBE0F901F9018958081F4CFD9
:100C30001F920F920FB60F9211242F933F938F9311
:100C40009F93AF93BF938091770590917805A09182
:100C50007905B0917A053091720523E0230F2D3785
:100C600058F50196A11DB11D20937205809377055B
:100C700090937805A0937905B0937A0580917305D8
:100C800090917405A0917505B09176050196A11D0E
:100C9000B11D8093730590937405A0937505B0936F
:100CA0007605BF91AF919F918F913F912F910F90BA
:100CB0000FBE0F901F90189526E8230F0296A11DD6
:100CC000B11DD2CFEBE7F5E01382128288EE93E0FC
:100CD000A0E0B0E084839583A683B7838AE091E0A7
:100CE0009183808385EC90E09587848784EC90E005
:100CF0009787868780EC90E0918B808B81EC90E0E9
:100D0000938B828B82EC90E0958B848B86EC90E0C9
:100D1000978B868B118E128E138E148EE0E3F6E085
:100D2000138212828CE191E0918380838DE0848331
:100D30008FEF85838CE086838BE087838AE08087D2
:100D400089E0818788E08287138614861586168657
:100D5000178681E00E948A0361E675E08AE296E0E8
:100D60000E94AF0566E271E084E296E00E94AF0562
:100D700061E675E08EE196E00E94AF0561E675E000
:100D800088E196E00C94AF05CF93DF93CDB7DEB743
:100D9000A4970FB6F894DEBF0FBECDBF789484B58C
:100DA000826084BD84B5816084BD85B5826085BD67
:100DB00085B5816085BD80916E00816080936E00F5
:100DC00010928100809181008260809381008091E7
:100DD0008100816080938100809180008160809398
:100DE00080008091B10084608093B1008091B00058
:100DF00081608093B00080917A00846080937A0053
:100E000080917A00826080937A0080917A0081607C
:100E100080937A0080917A00806880937A001092A3
:100E2000C100E0918B05F0918C0582E08083E09118
:100E30008705F09188051082E0918905F0918A0577
:100E40008FEC808310929305E0918F05F0919005CF
:100E500086E08083E0918D05F0918E058081806130
:100E60008083E0918D05F0918E058081886080837C
:100E7000E0918D05F0918E05808180688083E091FE
:100E80008D05F0918E0580818F7D808382E00E94A8
:100E90008A0361E082E00E945B0261E083E00E94DD
:100EA0005B0260E080E00E942B0483E391E00E94FB
:100EB000400461E080E00E942B0483E491E00E9402
:100EC000400460ED77E080E090E00E94B10260E0D5
:100ED00083E10E945B0260E087E00E945B0260E0C9
:100EE00086E00E945B0260E085E00E945B020E9457
:100EF000820380E4982E90E0C92E90E0D92E909243
:100F00007C0080917A00806480937A0080917A00DE
:100F100086FDFCCF009178001091790087E00E9457
:100F200004025C0186E00E9404027C0185E00E94CC
:100F30000402A114B10409F0C5C2EA94EF2809F033
:100F4000ADC5019709F0AAC561E088E00E942B04B5
:100F500086E591E00E9440040115110599F460E0D6
:100F600080E00E942B0481E691E00E94400460E052
:100F700085E00E942B0481E595E00E94400466E62E
:100F800071E043C1C801855691098336910538F552
:100F900060E080E00E942B048AE691E00E94400419
:100FA00060E085E00E942B048FE691E00E944004FF
:100FB00060E08BE00E942B0485E791E00E944004F2
:100FC00061E080E00E942B048AE595E00E944004E5
:100FD0006BE771E08EE196E00E948B054AC1C80183
:100FE000895C91098336910518F560E080E00E94E4
:100FF0002B048DE891E00E94400460E085E00E94AF
:101000002B0482E991E00E94400460E08BE00E94A2
:101010002B0488E991E00E94400461E080E00E9496
:101020002B048AE595E00E9440046EE971E0D2CF7E
:10103000C8018D5291408336910518F560E080E03B
:101040000E942B0480EB91E00E94400460E085E068
:101050000E942B0485EB91E00E94400460E08BE04D
:101060000E942B048BEB91E00E94400461E080E041
:101070000E942B048AE595E00E94400469EC71E02F
:10108000A9CFC801815991408336910518F560E0D8
:1010900080E00E942B048CED91E00E94400460E00F
:1010A00085E00E942B0481EE91E00E94400460E004
:1010B0008BE00E942B0487EE91E00E94400461E0E7
:1010C00080E00E942B048AE595E00E94400465EFD1
:1010D00071E080CFC801855F91408336910518F596
:1010E00060E080E00E942B0489E092E00E944004CE
:1010F00060E085E00E942B048EE092E00E944004B4
:1011000060E08BE00E942B0484E192E00E944004A6
:1011100061E080E00E942B048AE595E00E94400493
:101120006AE172E057CFC801895592408336910534
:1011300018F560E080E00E942B048EE292E00E94AD
:10114000400460E085E00E942B0483E392E00E946B
:10115000400460E08BE00E942B0489E392E00E944F
:10116000400461E080E00E942B048AE595E00E9443
:1011700040046FE372E02ECFC8018D5B924083364E
:10118000910518F560E080E00E942B0483E592E071
:101190000E94400460E085E00E942B0488E592E014
:1011A0000E94400460E08BE00E942B048EE592E0F8
:1011B0000E94400461E080E00E942B048AE595E0F3
:1011C0000E94400464E672E005CFC801815293405A
:1011D0008336910528F560E080E00E942B0488E7C3
:1011E00092E00E94400460E085E00E942B048DE7BD
:1011F00092E00E94400460E08BE00E942B0483E8B0
:1012000092E00E94400469E872E08EE196E00E945C
:101210008B0561E080E00E942B048AE595E027C001
:101220000538134054F160E080E00E942B048DE902
:1012300092E00E94400460E085E00E942B0482EA74
:1012400092E00E94400460E08BE00E942B0488EA58
:1012500092E00E9440046EEA72E08EE196E00E9405
:101260008B0561E080E00E942B0482EC92E00E94FA
:10127000400460E083E00E942D028BE795E00E942D
:101280002C01181619060CF059C0CE0101960E94C7
:101290005F05CE0101960E948104CE0101960E9455
:1012A000D0040E944D04882309F4C6C069EC72E0A2
:1012B00088E196E00E948B0560E080E00E942B04AC
:1012C00085ED92E00E94400461E080E00E942B04E2
:1012D0008AEE92E00E94400468EB7BE080E090E0C0
:1012E0000E94B1020E94820360ED77E080E090E00E
:1012F0000E94B10260E080E00E942B048FEF92E038
:101300000E94400461E080E00E942B048AEE92E09B
:101310000E94400460ED77E080E090E00E94B1021E
:1013200061E083E00E942D0268E873E180E090E0D4
:101330000E94B10261E083E00E942D026EE176E03E
:10134000CE0101960E949505CE0101960E942C05C2
:101350008C0140911C0650911D06609118067091F9
:1013600019060E940005811103C0C8010E94BE0435
:10137000B801CE014F960E949505CE0101960E94BC
:10138000D0048BA19CA11C8A1B8A1E8A1D8A188EE0
:101390001F8A4AE0BE016F5F7F4F0E946F0DBE0142
:1013A0006F5F7F4FCE0143960E948B05BE016D5E3D
:1013B0007F4FCE0101960E949505CE0101960E94B5
:1013C0002C058C014BA15CA16F8D78A10E940005BA
:1013D000811103C0C8010E94BE04B801CE01499624
:1013E0000E949505CE0101960E94D004CE0143963D
:1013F0000E94D0044D8D5E8D698D7A8D8BE795E0CE
:101400000E948E0068EB7BE080E090E00E94B102D9
:10141000CE0149960E94D004CE014F960E94D0047E
:10142000C114D10409F46BCD0E943801882309F45A
:1014300066CD0E94000063CD64E173E088E196E030
:101440000E948B0560E080E00E942B0486E293E01E
:101450000E94400461E080E00E942B048FE393E04F
:101460000E94400460ED77E080E090E00E94B102CD
:101470000E94820360ED77E080E090E00E94B1027C
:1014800060E080E00E942B048FEF92E00E94400415
:1014900061E080E00E942B0483E593E00E94400419
:1014A00060ED77E080E090E00E94B10260E083E0D0
:1014B0000E942D0260EA7FE080E090E00E94B1028D
:1014C00060E039CFE114F10409F072C1AA94AB28AD
:1014D00009F0E4C2019709F0E1C261E088E00E94EE
:1014E0002B0488E693E00E9440040115110509F4DD
:1014F00036CDC801855691098336910518F560E00F
:1015000080E00E942B048AE691E00E94400460E0A3
:1015100085E00E942B0483E793E00E94400460E092
:101520008BE00E942B0485E791E00E94400461E07B
:1015300080E00E942B048AE595E00E94400469E760
:1015400073E048CDC801895C91098336910518F58F
:1015500060E080E00E942B048DE891E00E9440044E
:1015600060E085E00E942B048BE893E00E94400439
:1015700060E08BE00E942B0488E991E00E94400427
:1015800061E080E00E942B048AE595E00E9440041F
:1015900061E973E01FCDC8018D52914083369105FA
:1015A00018F560E080E00E942B0480EB91E00E943F
:1015B000400460E085E00E942B0483EA93E00E94EF
:1015C000400460E08BE00E942B048BEB91E00E94D2
:1015D000400461E080E00E942B048AE595E00E94CF
:1015E000400469EA73E0F6CCC80181599140833622
:1015F000910518F560E080E00E942B048CED91E0ED
:101600000E94400460E085E00E942B048CEB93E094
:101610000E94400460E08BE00E942B0487EE91E082
:101620000E94400461E080E00E942B048AE595E07E
:101630000E94400462EC73E0CDCCC801855F91400C
:101640008336910518F560E080E00E942B0489E064
:1016500092E00E94400460E085E00E942B0486ED49
:1016600093E00E94400460E08BE00E942B0484E140
:1016700092E00E94400461E080E00E942B048AE531
:1016800095E00E9440046CED73E0A4CCC80189553C
:1016900092408336910518F560E080E00E942B04AB
:1016A0008EE292E00E94400460E085E00E942B04FC
:1016B00080EF93E00E94400460E08BE00E942B04E6
:1016C00089E392E00E94400461E080E00E942B04E4
:1016D0008AE595E00E94400466EF73E07BCCC80188
:1016E0008D5B92408336910518F560E080E00E94A2
:1016F0002B0483E592E00E94400460E085E00E94B4
:101700002B048AE094E00E94400460E08BE00E9499
:101710002B048EE592E00E94400461E080E00E948C
:101720002B048AE595E00E94400460E174E052CC0D
:10173000C8018152934083369105D8F460E080E07F
:101740000E942B0488E792E00E94400460E085E05C
:101750000E942B0484E294E00E94400460E08BE04D
:101760000E942B0483E892E00E9440046AE274E045
:101770004CCD053813400CF480CD60E080E00E9431
:101780002B048DE992E00E94400460E085E00E9415
:101790002B048EE394E00E94400460E08BE00E9402
:1017A0002B0488EA92E00E94400464E474E055CD82
:1017B000892B09F073C1AA94AB2809F06FC1EA9490
:1017C000EF2809F06BC161E088E00E942B0488E5F6
:1017D00094E00E9440040115110509F4C0CBC80132
:1017E000855691098336910518F560E080E00E94E6
:1017F0002B048AE691E00E94400460E085E00E94AC
:101800002B0486E694E00E94400460E08BE00E9496
:101810002B0485E791E00E94400461E080E00E9493
:101820002B048AE595E00E9440046CE674E0D2CB7C
:10183000C801895C91098336910518F560E080E064
:101840000E942B048DE891E00E94400460E085E056
:101850000E942B048EE794E00E94400460E08BE03D
:101860000E942B0488E991E00E94400461E080E03E
:101870000E942B048AE595E00E94400464E874E02D
:10188000A9CBC8018D5291408336910518F560E0CF
:1018900080E00E942B0480EB91E00E94400460E015
:1018A00085E00E942B0486E994E00E94400460E0F9
:1018B0008BE00E942B048BEB91E00E94400461E0DE
:1018C00080E00E942B048AE595E00E9440046CE9C8
:1018D00074E080CBC801815991408336910518F599
:1018E00060E080E00E942B048CED91E00E944004B7
:1018F00060E085E00E942B048FEA94E00E9440049F
:1019000060E08BE00E942B0487EE91E00E9440048F
:1019100061E080E00E942B048AE595E00E9440048B
:1019200065EB74E057CBC801855F91408336910524
:1019300018F560E080E00E942B0489E092E00E94AC
:10194000400460E085E00E942B0489EC94E00E9452
:10195000400460E08BE00E942B0484E192E00E944E
:10196000400461E080E00E942B048AE595E00E943B
:1019700040046FEC74E02ECBC80189559240833649
:10198000910518F560E080E00E942B048EE292E061
:101990000E94400460E085E00E942B0483EE94E006
:1019A0000E94400460E08BE00E942B0489E392E0F7
:1019B0000E94400461E080E00E942B048AE595E0EB
:1019C0000E94400469EE74E005CBC8018D5B924033
:1019D0008336910518F560E080E00E942B0483E5D2
:1019E00092E00E94400460E085E00E942B048DEFAD
:1019F00094E00E94400460E08BE00E942B048EE59E
:101A000092E00E94400461E080E00E942B048AE59D
:101A100095E00E94400463E075E0DCCAC801815291
:101A2000934083369105D8F460E080E00E942B0457
:101A300088E792E00E94400460E085E00E942B0469
:101A400087E195E00E94400460E08BE00E942B0457
:101A500083E892E00E9440046DE175E0D6CB053842
:101A600013400CF40ACC60E080E00E942B048DE966
:101A700092E00E94400460E085E00E942B0481E334
:101A800095E00E94400460E08BE00E942B0488EA0D
:101A900092E00E94400467E375E0DFCB60E080E005
:101AA0000E942B048BE495E00E94400461E088E0F2
:101AB0000E942B0482E695E00E9440043FCC88E11E
:101AC00096E00E94D0048EE196E00E94D00484E269
:101AD00096E00E94D0048AE296E00C94D004BB27E2
:101AE0004A3031F4992322F4BDE2909581959F4FBD
:101AF0000C947B0DBB27FB015527AA27880F991F44
:101B0000AA1FA41710F0A41B83955051B9F7A05D2C
:101B1000AA3308F0A95DA193009779F7B111B193A9
:101B20001192CB010C94940DDC01FC01672F719193
:101B30007723E1F7329704C07C916D9370836291B3
:101B4000AE17BF07C8F308952F923F924F925F924E
:101B50006F927F928F929F92AF92BF92CF92DF92BD
:101B6000EF92FF920F931F93CF93DF93CDB7DEB722
:101B7000CA1BDB0B0FB6F894DEBF0FBECDBF0994B6
:101B80002A88398848885F846E847D848C849B840D
:101B9000AA84B984C884DF80EE80FD800C811B811B
:101BA000AA81B981CE0FD11D0FB6F894DEBF0FBE4A
:101BB000CDBFED010895EE0FFF1F0590F491E02DCC
:101BC00009940F931F93CF93DF938230910510F404
:101BD00082E090E0E0914A06F0914B0630E020E090
:101BE000B0E0A0E0309799F42115310509F44AC01E
:101BF000281B390B24303105D8F58A819B8161156A
:101C0000710589F1FB0193838283FE0111C040813C
:101C100051810281138148175907E0F0481759078D
:101C200099F4109761F012960C93129713961C93E7
:101C30003296CF01DF91CF911F910F9108950093BC
:101C40004A0610934B06F4CF2115310551F0421787
:101C5000530738F0A901DB019A01BD01DF01F8014A
:101C6000C1CFEF01F9CF90934B0680934A06CDCFB9
:101C7000FE01E20FF31F81939193225031093983C2
:101C80002883D7CF2091480630914906232B41F471
:101C900020910201309103013093490620934806B8
:101CA00020910001309101012115310541F42DB73A
:101CB0003EB74091040150910501241B350BE09182
:101CC0004806F0914906E217F307A0F42E1B3F0BDC
:101CD0002817390778F0AC014E5F5F4F241735079E
:101CE00048F04E0F5F1F509349064093480681937A
:101CF00091939FCFF0E0E0E09CCFCF93DF930097EC
:101D0000E9F0FC01329713821282A0914A06B09149
:101D10004B06ED0130E020E01097A1F420813181E5
:101D2000820F931F209148063091490628173907E2
:101D300009F061C0F0934906E0934806DF91CF9126
:101D40000895EA01CE17DF07E8F54A815B819E011D
:101D500041155105B1F7E901FB83EA834991599196
:101D6000C40FD51FEC17FD0761F4808191810296A5
:101D7000840F951FE90199838883828193819B83D6
:101D80008A83F0E0E0E012968D919C911397009782
:101D9000B9F52D913C911197CD010296820F931FB9
:101DA00020914806309149062817390739F63097AF
:101DB00051F510924B0610924A06B0934906A09333
:101DC0004806BCCFD383C28340815181840F951FC5
:101DD000C817D90761F44E5F5F4F88819981480F1A
:101DE000591F518340838A819B819383828321156C
:101DF000310509F0B0CFF0934B06E0934A069ECF31
:101E0000FD01DC01C0CF13821282D7CFB0E0A0E089
:101E1000ECE0FFE00C94A60D8C01009751F4CB018F
:101E20000E94E10D8C01C801CDB7DEB7E0E10C9452
:101E3000C20DFC01E60FF71F9C0122503109E21789
:101E4000F30708F49DC0D901CD91DC911197C61715
:101E5000D70798F0C530D10530F3CE010497861727
:101E6000970708F3C61BD70B2297C193D1936D93A5
:101E70007C93CF010E947D0ED6CF5B01AC1ABD0AC8
:101E80004C018C0E9D1EA0914A06B0914B06512C20
:101E9000412CF12CE12C109731F58091480690915E
:101EA00049068815990509F05CC04616570608F0E2
:101EB00058C08091000190910101009741F48DB7C5
:101EC0009EB74091040150910501841B950BE817C2
:101ED000F90708F055C0F0934906E0934806F90168
:101EE00071836083A0CF8D919C91119712966C9015
:101EF000129713967C901397A815B90559F56C01A4
:101F000042E0C40ED11CCA14DB0420F1AC014A1912
:101F10005B09DA011296159780F062827382518311
:101F20004083D9016D937C93E114F10471F0D701E2
:101F30001396FC93EE93129776CF22968C0F9D1FEB
:101F4000F90191838083F301EFCFF0934B06E09387
:101F50004A0669CF4816590608F42C017D01D301C1
:101F60009ACFCB010E94E10D7C01009749F0AE01B0
:101F7000B8010E94C30FC8010E947D0E870153CF94
:101F800010E000E050CFFB01DC0102C001900D9297
:101F900041505040D8F70895FB01DC018D9101902C
:101FA00080190110D9F3990B0895FB01DC01019010
:101FB0000D920020E1F7089510E0C2E6D0E004C0E1
:101FC000FE010E94DB0D2196C336D107C9F7F894B4
:021FD000FFCF41
:101FD20000004C068000000000006E018E00BB0075
:101FE200BB012C01CA001E01000000003A048E0051
:101FF200E3028D005F00333830303736343332300D
:10200200324400534D415254204348415247494EB5
:1020120047200045562053595354454D2020202037
:1020220020202020200042617474657279202020D3
:1020320000553A302000555F3000553A35200043B4
:102042002D3235200031306D696E0031304D696EB0
:102052005F555F355F436F73745F323500553A38B1
:102062002000432D3432200031356D696E00313548
:102072004D696E5F555F385F436F73745F34320032
:10208200553A313300432D3637200032306D696EB8
:1020920020202020202020200032304D696E5F5504
:1020A2005F31335F436F73745F363700553A3137B0
:1020B20000432D3130350032356D696E20202020ED
:1020C200202020200032354D696E5F555F31375F29
:1020D200436F73745F31303500553A323500432D0A
:1020E2003134300033306D696E0033304D696E5FCC
:1020F200555F32355F436F73745F31343000553A48
:10210200323900432D3138300033356D696E00337A
:10211200354D696E5F555F32395F436F73745F315E
:10212200383000553A333500432D323530003430E3
:102132006D696E0034304D696E5F555F33355F43B4
:102142006F73745F32353000553A343300432D33A8
:1021520034360034356D696E0034354D696E5F5525
:102162005F34335F436F73745F33343600553A35EF
:102172003000432D3530300035306D696E0035301A
:102182004D696E5F555F35305F436F73745F3530F5
:102192003000423A46756C6C00414D4F554E545FCB
:1021A2005041494400416D6F756E742050616964FD
:1021B2002020202020202020200053756363657397
:1021C2007320202020202020202020202020004DAD
:1021D2006F746F7220556E4C6F636B6564202020A4
:1021E2002020200020414D4F554E545F4E4F545FEA
:1021F200504149442000416D6F756E74206E6F74BA
:1022020020506169642020202020202020200046C8
:1022120061696C75726520202020202020202020FA
:102222002020004661696C757265202020202020E4
:102232002020202020202000477269645F4E6F72A8
:10224200202000432D3330200031304D696E5F5520
:102252005F355F436F73745F333000432D34372033
:102262000031354D696E5F555F385F436F73745F40
:10227200343700432D3732200032304D696E5F55BE
:102282005F31335F436F73745F373200432D3131F7
:10229200300032354D696E5F555F31375F436F7382
:1022A200745F31313000432D3134350033304D69A4
:1022B2006E5F555F32355F436F73745F3134350043
:1022C200432D3138350033354D696E5F555F3239F4
:1022D2005F436F73745F31383500432D32353500FB
:1022E20034304D696E5F555F33355F436F73745F92
:1022F20032353500432D3335310034354D696E5F4B
:10230200555F34335F436F73745F33353100432D50
:102312003530350035304D696E5F555F35305F437E
:102322006F73745F35303500477269645F50656161
:102332006B2020202000432D3335200031304D69A1
:102342006E5F555F355F436F73745F333500432DA6
:102352003532200031354D696E5F555F385F436F0E
:1023620073745F353200432D3737200032304D69A8
:102372006E5F555F31335F436F73745F373700436E
:102382002D3131350032354D696E5F555F31375F22
:10239200436F73745F31313500432D313530003373
:1023A200304D696E5F555F32355F436F73745F31D5
:1023B200353000432D3139300033354D696E5F556C
:1023C2005F32395F436F73745F31393000432D32AE
:1023D20036300034304D696E5F555F33355F436F81
:1023E20073745F32363000432D3335360034354D49
:1023F200696E5F555F34335F436F73745F33353695
:1024020000432D3531300035304D696E5F555F35F3
:10241200305F436F73745F353130002020202020FD
:1024220020202020202020202020202020202020AA
:1024320020004E4F5F436F6E20202020202020205E
:02244200000098
:00000001FF
